:020000040800F2
:10000000000005209D0301088D2E00088F2E00089A
:10001000912E0008932E0008952E00080000000085
:1000200000000000000000000000000061B00008B7
:10003000972E00080000000001B10008992E00086A
:10004000ED030108ED030108ED030108ED030108CC
:10005000ED030108ED030108ED030108ED030108BC
:10006000ED030108ED030108ED030108ED030108AC
:10007000ED030108ED030108ED030108ED0301089C
:10008000ED030108ED030108ED030108ED0301088C
:10009000ED030108ED030108ED030108ED0301087C
:1000A000ED030108ED030108ED030108ED0301086C
:1000B000ED030108ED030108ED030108ED0301085C
:1000C000ED030108ED030108ED030108ED0301084C
:1000D000ED030108ED030108ED030108ED0301083C
:1000E000ED030108ED030108ED030108ED0301082C
:1000F000ED030108ED030108ED030108ED0301081C
:10010000ED03010831010108ED030108ED030108C9
:10011000ED030108ED030108A12E0008ED0301081D
:10012000ED030108ED030108ED03010811010108C9
:100130007D2E0008B12E0008ED030108ED03010833
:10014000ED030108ED030108ED030108C12E0008CD
:10015000ED030108210101086D2E0008ED030108DF
:10016000ED030108ED030108ED030108ED030108AB
:10017000ED030108ED030108ED0301080000000094
:10018000ED030108ED030108ED030108ED0301088B
:10019000ED030108ED030108ED030108ED0301087B
:1001A000D12E0008ED030108E12E0008ED0301083F
:1001B000ED030108ED030108ED030108ED0301085B
:0801C000ED030108ED03010845
:1001D00010B5054C237833B9044B13B10448AFF381
:1001E00000800123237010BDD0000020000000001B
:1001F0004C1701080C4B43B10C480D4910B5AFF337
:1002000000800C48036823B910BD0A48036833B95D
:100210007047094B002BF7D0BDE810401847064B3C
:10022000002BF5D0184700BF000000004C17010854
:10023000D4000020D00000200000000000000000DA
:1002400001F0FF01102A2BDB10F0070F08D010F887
:10025000013B013A8B422DD010F0070F42B3F6D18B
:10026000F0B441EA012141EA014122F007047FF0A4
:1002700000070023F0E80256083C85EA010586EAFB
:10028000010685FA47F5A3FA87F586FA47F6A5FA37
:1002900087F68EB9EED1F0BC01F0FF0102F0070243
:1002A00032B110F8013B013A83EA010313B1F8D1EE
:1002B0000020704701387047002D06BF35460338CF
:1002C000073815F0010F07D1013015F4807F02BF08
:1002D000013015F4C03F0130F0BC0138704700BF59
:1002E00053B94AB9002908BF00281CBF4FF0FF319D
:1002F0004FF0FF3000F07AB9ADF1080C6DE904CE93
:1003000000F006F8DDF804E0DDE9022304B07047F0
:100310002DE9F0478C460D460446089E002B51D12E
:100320008A4217466DD9B2FA82FEBEF1000F0BD099
:10033000CEF1200C01FA0EF520FA0CFC02FA0EF7B1
:100340004CEA050C00FA0EF44FEA174A250CBCFBE8
:10035000FAF81FFA87F90AFB18CC45EA0C4508FBA6
:1003600009F3AB420AD9ED1908F1FF3280F023817D
:10037000AB4240F22081A8F102083D44ED1AA4B23C
:10038000B5FBFAF00AFB105544EA054400FB09F9F5
:10039000A14509D9E41900F1FF3380F00A81A14594
:1003A00040F2078102383C44A4EB090440EA0840CB
:1003B0000021002E61D024FA0EF400233460736013
:1003C000BDE8F0878B4207D9002E54D0002186E883
:1003D00021000846BDE8F087B3FA83F1002940F018
:1003E0008E80AB4202D3824200F2FA80841A65EB1F
:1003F00003050120AC46002E3FD086E81010BDE872
:10040000F08712B90127B7FBF2F7B7FA87FEBEF102
:10041000000F34D1EB1B3A0C1FFA87FC0121B3FB10
:10042000F2F8250C02FB183345EA03450CFB08F3F0
:10043000AB4207D9ED1908F1FF3002D2AB4200F20E
:10044000D1808046ED1AA3B2B5FBF2F002FB105545
:1004500043EA05440CFB00FCA44507D9E41900F16C
:10046000FF3302D2A44500F2B8801846A4EB0C0476
:1004700040EA08409DE731463046BDE8F087CEF1BE
:10048000200405FA0EF307FA0EF720FA04F83A0CE6
:1004900025FA04F448EA0308B4FBF2F14FEA1845E0
:1004A00002FB11441FFA87FC45EA044501FB0CF3EB
:1004B000AB4200FA0EF409D9ED1901F1FF3080F0DA
:1004C0008A80AB4240F2878002393D44EB1A1FFA22
:1004D00088F5B3FBF2F002FB103345EA034500FB5D
:1004E0000CF3AB4207D9ED1900F1FF386FD2AB42E4
:1004F0006DD902383D44EB1A40EA01418FE7C1F162
:10050000200722FA07F88B4005FA01F448EA0303B2
:1005100020FA07FE4FEA134CFD404EEA040EB5FBED
:10052000FCF94FEA1E440CFB19551FFA83F844EA04
:10053000054509FB08F4AC4202FA01F200FA01FA9F
:1005400008D9ED1809F1FF3043D2AC4241D9A9F1E5
:1005500002091D442D1B1FFA8EFEB5FBFCF00CFB9F
:1005600010554EEA054400FB08F8A04507D9E418E9
:1005700000F1FF3529D2A04527D902381C4440EAB2
:100580000940A4EB0804A0FB02894C45C6464D4631
:1005900015D312D056B1BAEB0E0364EB050404FA7E
:1005A00007F7CB401F43CC40376074600021BDE8A3
:1005B000F0871846F8E69046E0E6C245EAD2B8EB86
:1005C000020E69EB03050138E4E72846D7E7404609
:1005D00091E78146BEE7014678E702383C4445E7AB
:1005E000084608E7A8F102083D442BE7704700BF22
:1005F000054B064A1A6000225A609A60DA601A6156
:100600005A619A61704700BFB8940020002C0140E5
:100610002DE9F04F91B09A4B1A6B42F010021A6319
:100620001A6B02F010020092009A1A6B42F040021C
:100630001A631A6B02F040020192019A1A6B42F09F
:1006400002021A631A6B02F002020292029A1A6BF9
:1006500042F008021A631A6B02F008020392039A2E
:100660001A6B42F004021A631A6B02F0040204923D
:10067000049A1A6B42F001021A631A6B02F001022B
:100680000592059A1A6B42F400721A631A6B02F40F
:1006900000720692069A1A6B42F480721A631A6B01
:1006A00002F480720792079A1A6B42F480621A630E
:1006B0001A6B02F480620892089A1A6B42F02002C8
:1006C0001A631A6B02F020020992099A1A6B42F01F
:1006D00080021A631B6B03F080030A930A9B0122BA
:1006E0002021684809F016FD00220C21664809F017
:1006F00011FD01220821654809F00CFD01224FF48B
:100700008051614809F006FD00224FF40051604815
:1007100009F000FD0022C8215E4809F0FBFC4FF003
:10072000080ACDF82CA000240C940D940BA95A486B
:1007300009F064FB43F623430B934FF00208CDF816
:1007400030800D9403270E970A260F960BA9534865
:1007500009F054FB4FF480530B930C940D940BA9A8
:100760004F4809F04BFB40230B93DFF840B1CDF825
:1007700030B00D940BA9434809F040FB20230B93A4
:1007800001250C950D940E940BA93E4809F036FBFB
:1007900041F20C030B930C950D940E940BA93A485F
:1007A00009F02CFB4FF40059CDF82C900C940D94CB
:1007B0000BA93C4809F022FBCDF82CA00C950D9418
:1007C0000E940BA9314809F019FB4FF0100ACDF82F
:1007D0002CA00C940D940BA92A4809F00FFB48F2A9
:1007E00004030B930C940D940BA9294809F006FB04
:1007F000CDF82C900C950D940E940BA9244809F07B
:10080000FDFACDF82C90CDF830B00D940BA91E4810
:1008100009F0F4FACDF82CA0CDF830800D940E97A5
:100820000F960BA91A4809F0E9FAC8230B930C9507
:100830000D940E940BA9174809F0E0FA05230B93C9
:10084000CDF830800D940E970F960BA9154809F03E
:10085000D5FA04230B930C940D940BA90D4809F0C1
:10086000CDFA28230B93CDF830800D940E970F9678
:100870000BA90D4809F0C2FA11B0BDE8F08F00BF16
:1008800000380240000C02400020024000280240D4
:10089000001C024000180240001002400004024008
:1008A0000024024000080240000002400000121034
:1008B00008B50EF075FD174900200EF081F91649B4
:1008C00001200EF07DF90EF09DFC00200EF0B8F92D
:1008D0004FF0FF300EF0F8F94FF0FF300EF0D8F97E
:1008E0004FF0FF3101200EF0B9F901200EF0A8F908
:1008F0004FF0FF300EF0E8F94FF0FF300EF0C8F97E
:10090000FF2100200EF0A2F9FF2101200EF09EF938
:1009100008BD00BF000000C000F807C000211A2970
:1009200019DC00221A2A14DC10B401EB410303EB9A
:10093000C30313440024084840F8234001321A2A14
:10094000F3DD01311A2901DC0022F8E75DF8044BE0
:1009500070470131E3E770472401002008B5FFF735
:10096000DDFF6422684B1A60684B0122C3F8C8217E
:10097000C3F8CC21C3F8D021C3F8D421C3F8F421A3
:10098000C3F8F821C3F8FC21C3F80022C3F80422FD
:10099000C3F83022C3F84022C3F87022C3F89C2267
:1009A000C3F8AC22C3F8DC22C3F80823C3F8102331
:1009B000C3F81423C3F81823C3F84823C3F8E0236B
:1009C000C3F8E423C3F8E823C3F8EC23C3F8F02307
:1009D000C3F8F823C3F8FC23C3F80024C3F80424A5
:1009E000C3F80824C3F84C24C3F85424C3F864247F
:1009F000C3F87424C3F87C24C3F88024C3F8842487
:100A0000C3F88824C3F88C24C3F8B824C3F8BC24E2
:100A1000C3F8C024C3F8C424C3F8C824C3F8D0243E
:100A2000C3F8D424C3F8D824C3F8DC24C3F8E024E2
:100A3000C3F89025C3F89425C3F89825C3F89C25DE
:100A4000C3F8A025C3F8A825C3F8AC25C3F8B02582
:100A5000C3F8B425C3F8B825C3F8C025C3F8C42526
:100A6000C3F8C825C3F8CC25C3F8D025C3F8FC25A6
:100A7000C3F81426C3F81C26C3F82C26C3F8342662
:100A8000C3F86C26C3F88026C3F88826C3F89826D6
:100A9000C3F8A026C3F8D426C3F84027C3F84427D8
:100AA000C3F84827C3F84C27C3F85027C3F81828C1
:100AB000C3F81C28C3F82028C3F82428C3F8282822
:100AC000C3F84828C3F84C28C3F85028C3F8542862
:100AD000C3F85828C3F88428C3F88C28C3F894288E
:100AE000C3F8B428C3F8BC28C3F8C428C3F8F02856
:100AF000C3F8F828C3F80029C3F82029C3F8282927
:100B0000C3F8302908BD00BF0000002024010020E8
:100B100008B5FFF703FF4FF496720A4B1A600A4BB1
:100B20000122C3F86024C3F86424C3F86824C3F81E
:100B3000CC24C3F8D424C3F83825C3F83C25C3F823
:100B4000402508BD000000202401002008B56422D3
:100B5000174B1A60FFF7E2FE164B0122C3F8602420
:100B6000C3F8C424C3F8CC24C3F82C25C3F8342517
:100B7000C3F88025C3F88425C3F89425C3F8A025BD
:100B8000C3F8D025C3F8D425C3F8EC25C3F8F02565
:100B9000C3F80426C3F80C26C3F83C26C3F8402645
:100BA000C3F87426C3F87C26C3F8E82608BD00BF46
:100BB000000000202401002008B54FF44872264BA5
:100BC0001A60FFF7ABFE254B0122C3F84822C3F899
:100BD0004C22C3F85422C3F8B422C3F8BC22C3F891
:100BE000C022C3F89023C3F89423C3F89823C3F812
:100BF000F823C3F80024C3F80824C3F81024C3F86A
:100C00001424C3F86424C3F87424C3F87C24C3F800
:100C10008024C3F8C424C3F8C824C3F8D024C3F87C
:100C2000E024C3F83025C3F83425C3F83C25C3F8C5
:100C30004C25C3F8AC25C3F8B025C3F8B425C3F8D8
:100C40008426C3F88826C3F89026C3F8F026C3F894
:100C5000F826C3F8FC2608BD00000020240100206F
:100C600008B54FF41672154B1A60FFF757FE144B78
:100C70000122C3F8F423C3F8F823C3F8FC23C3F814
:100C80006024C3F86424C3F86824C3F8CC24C3F8F0
:100C9000D024C3F8D424C3F84425C3F84825C3F8A6
:100CA0004C25C3F8B025C3F8B425C3F8B825C3F85C
:100CB0001C26C3F82026C3F8242608BD0000002007
:100CC0002401002008B564221F4B1A60FFF726FE9E
:100CD0001E4B0122C3F84025C3F84425C3F8AC25B8
:100CE000C3F8B025C3F81426C3F82026C3F880261D
:100CF000C3F88426C3F88826C3F88C26C3F8E826F0
:100D0000C3F8F026C3F8F426C3F8FC26C3F8582726
:100D1000C3F86427C3F82C28C3F83028C3F83C284C
:100D2000C3F84028C3F89428C3F8B028C3F8702942
:100D3000C3F88429C3F8E029C3F8EC29C3F8502A82
:100D4000C3F8542A08BD00BF000000202401002081
:100D500008B54FF448722B4B1A60FFF7DFFD2A4BA2
:100D60000122C3F8FC23C3F80424C3F86024C3F8A9
:100D70006424C3F86824C3F87024C3F87424C3F847
:100D80007824C3F8C824C3F8D824C3F8E824C3F8E7
:100D90003425C3F83C25C3F84C25C3F85425C3F8C3
:100DA000A425C3F8A825C3F8B025C3F8B825C3F80F
:100DB000BC25C3F87C26C3F88026C3F88826C3F870
:100DC0009026C3F89426C3F8E426C3F8EC26C3F8AB
:100DD000FC26C3F80427C3F85027C3F86027C3F8DC
:100DE0007027C3F8C027C3F8C427C3F8C827C3F8BF
:100DF000D027C3F8D427C3F8D827C3F83428C3F8BA
:100E00003C2808BD000000202401002008B5642211
:100E10000F4B1A60FFF782FD0E4B0122C3F800232F
:100E2000C3F80423C3F86423C3F86823C3F870230A
:100E3000C3F87423C3F8D023C3F8D423C3F8D8234A
:100E4000C3F8DC23C3F84024C3F8442408BD00BF22
:100E5000000000202401002008B54FF47A72094BED
:100E60001A60FFF75BFD084B0122C3F83C25C3F86D
:100E70004025C3F8A825C3F82026C3F88826C3F860
:100E80008C2608BD000000202401002008B54FF486
:100E90004872334B1A60FFF741FD324B0122C3F811
:100EA000AC22C3F8B022C3F8B422C3F8C422C3F8FA
:100EB000C822C3F8CC22C3F87C23C3F89023C3F81C
:100EC0009823C3F8AC23C3F8E823C3F8FC23C3F882
:100ED0000424C3F81824C3F85424C3F86824C3F8BE
:100EE0007024C3F88424C3F8C824C3F8CC24C3F8FE
:100EF000D024C3F8E024C3F8E424C3F8E824C3F8FA
:100F0000A025C3F8A425C3F8A825C3F8B825C3F8BD
:100F1000BC25C3F8C025C3F80426C3F81826C3F8B7
:100F20002026C3F83426C3F87026C3F88426C3F8F5
:100F30008C26C3F8A026C3F8DC26C3F8F026C3F835
:100F4000F826C3F80C27C3F8BC27C3F8C027C3F89A
:100F5000C427C3F8D427C3F8D827C3F8DC2708BDB3
:100F6000000000202401002008B54FF49672154BB4
:100F70001A60FFF7D3FC144B0122C3F89423C3F883
:100F8000FC23C3F86424C3F8D024C3F83C25C3F879
:100F9000A825C3F81426C3F88026C3F8F026C3F8A2
:100FA0006027C3F8F826C3F89026C3F82426C3F8B0
:100FB000B825C3F84C25C3F8E024C3F80424C3F8CB
:100FC000742408BD000000202401002008B59622EA
:100FD000154B1A60FFF7A2FC144B0122C3F808243A
:100FE000C3F87824C3F8E024C3F8DC24C3F8482508
:100FF000C3F86C24C3F8D824C3F8D424C3F840251C
:10100000C3F81826C3F88426C3F88826C3F8F42644
:10101000C3F82026C3F88C26C3F89026C3F86827A7
:10102000C3F8002708BD00BF0000002024010020F5
:1010300070B586B001F04CFC01F09EFDFFF78EFC10
:101040004FF47A700BF0B8F801ACB94D0FCD0FC466
:101050002B682360002101A80BF03CFBB54B186006
:1010600045E08910B44A1160A4F2B912262A0FD8BB
:101070006A1E132A0CD8B04A12681E2A08DD920094
:10108000AE4981FB0201D217C2EB6102AA490A6094
:10109000A4F5C6722B2A09D86A1E132A06D8A84AB4
:1010A0001268002A49D00021A54A1160002B40F0A7
:1010B0000581A4F291134E2B07D8A5F1F103122B51
:1010C00003D84FF0FF329F4B1A609F4B1B68012BD8
:1010D0006FD0022B00F0B480002B32D09B4C618883
:1010E0009B480DF09FFCA1899A480DF09BFC642061
:1010F0000BF062F8954C20460EF056FB2378002B3F
:10110000F5D0234664889D898E4B1B68B3F1FF3F61
:10111000CCD0A4F5B7721C2AA6D86A1E132AA3D86D
:10112000854A126841F287318A429DDC02EB8202D5
:101130001146002A95DAD11C93E70121804A1160FB
:10114000B4E7A4F26913712B03D8A5F13303122B72
:1011500023D9A4F59E769E2E03D8A5F16503122B04
:101160001ED9A4F5A373942B03D8A5F197031C2BC8
:1011700019D99E2E03D8A5F1BF03122B16D9A4F2BC
:1011800019143A2CAAD80E2DA8D86F4A1368013327
:1011900013600122704B1A60A0E7FFF777FED8E7D3
:1011A000FFF7B6FCDDE7FFF711FFE2E7FFF7DCFE34
:1011B000E5E7A4F27D165D2E03D8A5F13303122BCB
:1011C00032D9A4F22313B72B03D8A5F16503122B50
:1011D0002DD9A4F5A373942B03D8A5F18D03122B5D
:1011E00028D95D2E03D8A5F1BF031C2B25D9A4F265
:1011F00019143A2C08D80E2D06D8534A1368013317
:1012000013600122544B1A603A2C3FF667AFA5F1E8
:10121000F1031E2B3FF662AF4B4A1368013B13608C
:1012200001224D4B1A6059E7FFF7C6FCC9E7FFF7EB
:1012300049FDCEE7FFF714FDD3E7FFF787FCD6E7BC
:10124000A4F5C173582B03D8A5F13803172B29D95E
:10125000A4F58F73BC2B03D8A5F16503122B24D9F9
:10126000A4F25F137B2B03D8A5F19703122B1FD990
:10127000A4F22D13AD2B03D8A5F1BF03122B1AD95D
:10128000A4F219143A2C3FF629AFA5F1F1031E2B55
:101290003FF624AF2C4A1368013B136001222E4B0A
:1012A0001A601BE7FFF7B2FDD2E7FFF751FDD7E762
:1012B000FFF7D2FDDCE7FFF751FBE1E7A4F2911362
:1012C0004E2B06D8A5F1F103122B02D800221D4B9C
:1012D0001A60224A82FB04131C44241182FB05235A
:1012E0002B441B11082CD8BF082B3FF700AF093443
:1012F000093304EB440202EBC2021A44184951F8C4
:101300002220012A09D004EB440404EBC4041C4449
:101310000122134B43F82420E9E604EB440404EBD8
:10132000C404234400210E4A42F82310DFE600BF24
:1013300064170108B4940020000000206766666608
:1013400004000020180100201C010020EC000020F7
:10135000B8170108BC170108200100208988888877
:1013600024010020F0B50026374627E000F11A04DA
:101370003444194A82FB043EE317C3EBEE0303EB4C
:10138000430303EBC303E31A01F11A042C4482FB69
:10139000042EE217C2EBEE0202EB420202EBC202A3
:1013A000A21A03EB430303EBC30313440B4A52F8A3
:1013B00023301F440135022DD8DD0136022E01DC19
:1013C0000025F8E700EB400000EBC0000144034BB0
:1013D00053F82100381AF0BDF712DA4B240100202F
:1013E00030B5ADF66C3D40F66432002101A80FF037
:1013F00040F800250FE021462846FFF7B3FF05EB34
:10140000450303EBC303234401AA42F8230001343C
:101410001A2CF0DD01351A2D01DC0024F8E700223A
:1014200049E002EB420303EBC3030B4401A850F86D
:101430002330023B012B29D902EB420303EBC30308
:101440000B4400241F4840F8234001311A2931DCA5
:1014500002EB420303EBC3030B441A4850F823305A
:10146000012BDED002EB420303EBC3030B4401A8C4
:1014700050F82330032B13D002EB420303EBC303DA
:101480000B4400240F4840F82340DEE702EB420300
:1014900003EBC3030B4401240A4840F82340D4E77C
:1014A00002EB420303EBC3030B440124054840F85D
:1014B0002340CAE701321A2A01DC0021C6E70DF6F3
:1014C0006C3D30BD2401002070472DE9F04F87B0FE
:1014D0000646894602921C46BDF84080BDF844305D
:1014E0000393081A80B2FFF7EFFF0FFA80FAA8EB18
:1014F000040080B2FFF7E8FF0FFA80FB35B227B295
:10150000B14515D301230493A04515D301230593B9
:10151000DA4518DB5446BAF1000F11DB44F34F04EF
:10152000049B00930023049301934FF0000926E0ED
:101530004FF0FF330493E7E74FF0FF330593E7E7FE
:101540000AF10104EAE75C46BBF1000F0ADB44F351
:101550004F045346DA469B46059B019300230593AF
:101560000093E2E70BF10104F1E7009B1D442DB26B
:10157000019B1F443FB209F101090FFA89F9CA45DD
:1015800018DB1FFA85F8BEB2039B029A314640462B
:101590000DF070FD5C44A3B21CB2A245E5DCA3EBE8
:1015A0000A0424B2049B08EB03052DB2059BF7182F
:1015B0003FB2DAE707B0BDE8F08F10B50DF0E8FAFA
:1015C00084B20DF0F1FA81B220460EF08BF808B922
:1015D000002010BD4FF0FF3010BD000030B583B0CB
:1015E000864B1B68012B00F08280022B00F0B2803A
:1015F000002B4FD0BE231A4628214FF48C700DF0DB
:10160000FBFB4FF0FF200DF037FB0B250195152458
:101610000094012340F2DB124FF4E6710846FFF715
:1016200054FF01950094012340F2C7124FF4DC717E
:101630000846FFF74AFF724B1B68002B40F0B7804B
:101640001523072201214FF4CD700DF091FD1523D4
:101650000722012140F2A7100DF08AFD4FF0FF2074
:101660000DF00AFB0B25019515240094012340F28F
:1016700081124FF4C8710846FFF727FF01950094C7
:10168000012340F26D124FF4BE710846FFF71DFFB3
:101690000025A4E000200DF0D3FA4FF0FF300DF04C
:1016A00013FB4FF0FF200DF0E7FA0123554A3221DA
:1016B000AF200DF075FC0123534A642196200DF0F4
:1016C0006FFC0123514A9621A0200DF069FC0123F3
:1016D0004F4AC82196200DF063FC4E480DF0CCFA1D
:1016E00001234D4A002146200DF05AFC82E70020DC
:1016F0000DF0A6FA4FF0FF300DF0E6FA4FF0FF20A4
:101700000DF0BAFA0123454A3221B9200DF048FC08
:101710000123434A64218C200DF042FC0123414AFD
:101720009621B9200DF03CFC01233F4AC821A0209E
:101730000DF036FC37480DF09FFA0123364A0021A0
:1017400046200DF02DFC0123384AFA2146200DF0E9
:1017500027FC4FE700200DF073FA4FF0FF300DF03B
:10176000B3FA4FF0FF200DF087FA0123304A3221FF
:10177000BF200DF015FC01232E4A64218E200DF0B0
:101780000FFC01232C4A9621B1200DF009FC012306
:101790002A4AC82191200DF003FC1E480DF06CFA76
:1017A0000123224AFA2146200DF0FAFB22E72448C1
:1017B0000DF062FA44E704EB8403590001F58871E7
:1017C00089B205EB8503580000F5F07080B20A235A
:1017D0001A460DF011FB01341A2CECDD01351A2DDF
:1017E00001DC0024F8E716480DF046FA0123154AFB
:1017F000FA21C8200DF0D4FB03B030BD1C0100203D
:1018000004000020CC170108D4170108E0170108D4
:10181000EC1701080000FFFFF81701080018010885
:1018200008180108141801081C18010828180108D4
:101830003018010838180108441801084C1801082C
:10184000FF0000FF5818010838B500200DF0F8F926
:101850004FF0FF200DF010FA364B1B687BB91523B3
:10186000072201214FF4CD700DF082FC15230722D1
:10187000012140F2A7100DF07BFC00254EE02E4820
:101880000DF0FAF9EBE74FF0FF200DF0F5F904EB5E
:101890008403590001F5887189B205EB850358006E
:1018A00000F5F07080B20A231A460DF061FC4FF08B
:1018B000FF200DF0E1F904EB8403590001F5887174
:1018C00089B205EB8503580000F5F07080B20A2359
:1018D0001A460DF091FA01341A2C1EDC05EB450373
:1018E00003EBC3032344154A52F82330012BCAD01B
:1018F0004FF0FF300DF0C0F904EB8403590001F5FF
:10190000887189B205EB8503580000F5F07080B24C
:101910000A231A460DF02CFCC9E701351A2D01DC0B
:101920000024D9E7034B1B6803B138BDFFF758FD0E
:10193000FBE700BF04000020FF0000FF240100209F
:10194000F0B583B06422704B1A6000276F4B1F60A4
:1019500038460DF075F94FF0FF300DF0B5F94FF046
:10196000FF200DF089F923E04FF0FF300DF084F9EE
:1019700007EB87035C0004F5F074A4B206EB860362
:101980005D0005F58875ADB20A231A462946204642
:101990000DF0EEFB4FF0FF200DF06EF90A231A4612
:1019A000294620460DF028FA01361A2EDCDD0137D3
:1019B0001A2F01DC0026F8E755480DF05DF90925DE
:1019C00013E004EB8403590001F5887189B205EB3B
:1019D0008503580000F5F07080B20A231A460DF016
:1019E0000BFA0134112CECDD0135112D01DC092439
:1019F000F8E74FF47A700AF0DFFB4FF0FF300DF09C
:101A00003BF9002513E004EB8403590001F58871CC
:101A100089B205EB8503580000F5F07080B20A2307
:101A20001A460DF0E9F901341A2CECDD01351A2DB6
:101A300001DC0024F8E7FEF771FF0122354B1A6044
:101A400033480DF019F9002513E0C4EB04135900D5
:101A500001F5887189B2C5EB0513580000F5F070E7
:101A600080B21E231A460DF0C7F90134082CECDDB4
:101A70000135082D01DC0024F8E74FF0FF200DF0C0
:101A8000FBF80B25019515240094012340F28112E7
:101A90004FF4C8710846FFF718FD01950094012323
:101AA00040F26D124FF4BE710846FFF70EFD01952E
:101AB0000094012340F2DB124FF4E6710846FFF771
:101AC00004FD01950094012340F2C7124FF4DC712C
:101AD0000846FFF7FAFC2346072201214FF4CD7098
:101AE0000DF046FB23460722012140F2A7100DF01E
:101AF0003FFB07480DF0C0F80123074AFA21C82030
:101B00000DF04EFA03B0F0BD0000002004000020EC
:101B1000FF0000FF1801002060180108F0B583B035
:101B200002AC002304F8043D374B1A6837492046BD
:101B30000EF0F4FD4FF0FF300DF09EF81E23C8228A
:101B40003C214FF487700DF013FB4FF0FF200DF098
:101B500093F801232246412182200DF021FA2C4BDB
:101B60001B687BB91523072201214FF4CD700DF0BE
:101B7000FFFA15230722012140F2A7100DF0F8FA11
:101B800000263AE023480DF077F8EBE74FF0FF200E
:101B90000DF072F8C6EB06135C0004F5F074A4B205
:101BA000C5EB05135F0007F58877BFB21E231A4601
:101BB000394620460DF0DCFA16480DF05DF81E237C
:101BC0001A46394620460DF017F90135082D13DC69
:101BD00006F1090305F1090103EB430303EBC3021B
:101BE0000B4613440C4A52F82330012BCED04FF051
:101BF000FF300DF041F8CDE70136082E01DC00255D
:101C0000E4E703B0F0BD00BF00000020C0170108EA
:101C100004000020FF0000FF2401002008B5FEF7AB
:101C200047FEFFF7DBFC14E0FFF78AFE04E0FFF756
:101C300075FF64200AF0C0FA0D4B1B68012BF6D02B
:101C4000FFF7CCFC05E0FFF7FFFD0A4B18680AF030
:101C5000B3FA074B1B68B3F1FF3FE5D0064B1B6897
:101C6000002BF0D0FFF7BAFC0022034B1A60EAE722
:101C7000180100200000002020010020044B1B68F8
:101C8000DA6912F0800FF9D0C0B298620020704774
:101C9000FCB6002008B50268034B9A4200D008BD8C
:101CA00008F0DAFCFBE700BF00100040FEE7000090
:101CB00000B585B01648174B03604FF4803343607E
:101CC00000238360036183610362C362124A8262FC
:101CD000C3600122C2610363426103F053F868B933
:101CE00004230093012301930023029369460848CB
:101CF00003F072F838B905B05DF804FB4FF4F371E6
:101D00000648FFF7D3FF4FF4F8710448FFF7CEFF02
:101D100064B60020002201400100000FB017010846
:101D200008B50948094B03600023037143714361FF
:101D300083610123036203F099F900B908BD40F201
:101D400001210348FFF7B2FF9094002000300240C9
:101D5000B017010808B50C480C4B03600023436022
:101D60008360C36003614361836103624362836292
:101D7000C362036303F0E6F900B908BD4FF40671CE
:101D80000348FFF793FF00BFACB6002000000550EA
:101D9000B017010808B50F480F4B036000234360DC
:101DA0008360C3608362C3620363436303F05CFACE
:101DB00028B90121074803F0E1FB28B908BD40F22A
:101DC0002B210648FFF772FF4FF40C710348FFF711
:101DD0006DFF00BF40B8002000B00240B0170108FE
:101DE00000B589B01648174B036000234360836039
:101DF0000421C16010220261402242614FF4C0728E
:101E00008261C3614FF4006202624FF48052426209
:101E10008362022301930722029203910492032218
:101E2000059206930793694403F0ACFC10B909B01E
:101E30005DF804FB40F213510348FFF737FF00BF82
:101E400000B90020400100A0B017010808B51548EE
:101E5000154B0360154B4360002383600122C26071
:101E6000036143618361C361036203F045FE50B9BE
:101E700000210C4804F07FF850B90021094804F013
:101E8000A8F850B908BD4FF411710948FFF70EFFCB
:101E900040F24B210648FFF709FF40F25221044867
:101EA000FFF704FF4494002000540040FFEAC00004
:101EB000B017010808B51548154B0360154B436072
:101EC000002383600122C260036143618361C361B7
:101ED000036203F011FE50B900210C4804F04BF8E6
:101EE00050B90021094804F074F850B908BD40F217
:101EF00066210948FFF7DAFE40F26D210648FFF738
:101F0000D5FE4FF41D710448FFF7D0FE84920020E7
:101F1000005C0040FFEAC000B017010800B58FB0B8
:101F200029482A4B0360002343608360C360036138
:101F300028224261092282613522C2610B2202629B
:101F400040F21522426240F21B12826240F23522B8
:101F5000C26240F21D12026380F8343080F83530DE
:101F600080F8363004F02AF920BB002201924FF4A9
:101F7000F071029103924FF4887304930592FF204D
:101F8000069007924FF4C0600890072009904FF028
:101F900040400A900B910C938DF834208DF8352039
:101FA0008DF8362001A9084804F0FCF938B90FB0C3
:101FB0005DF804FB40F291210548FFF777FE40F2FF
:101FC000A5210348FFF772FEBCB500200068014060
:101FD000B017010808B50B480B4B0360FF234360A3
:101FE000012282600023C360026143618361C36197
:101FF000036204F093FA00B908BD40F2BA21034825
:10200000FFF754FE74B90020001000A0B0170108BB
:1020100000B593B03C483D4B0360002343607F22F2
:102020008260FF22C26003614361836104F012FB9E
:1020300000284BD100238DF830308DF831308DF8E9
:1020400032301093119301220CA92F4804F0CEFBDB
:10205000002840D101228DF82C208DF82D208DF8FC
:102060002E2000238DF82F300BA9274804F050FBB9
:10207000002835D100238DF800308DF801308DF81F
:10208000023001930493059306930793089301226A
:102090008DF824204FF480730A9369461A4804F09F
:1020A00025FC10BB01228DF824204FF400730A9305
:1020B0006946154804F01AFCE0B9022200211248D2
:1020C00004F0C4FCD8B913B05DF804FB40F2DA2187
:1020D0000F48FFF7EBFD40F2E6210D48FFF7E6FD64
:1020E0004FF43C710A48FFF7E1FD40F20231084825
:1020F000FFF7DCFD40F20B310548FFF7D7FD40F25A
:1021000012310348FFF7D2FD6CB7002000280040D1
:10211000B017010808B52648264B03600023036367
:102120004360C02242638363C3638360036143618E
:102130008361214AC261C36043628362C362082231
:102140000264012242648364C3640365436583655A
:10215000C265036604F0CAFC00BB1848184B036054
:102160000023036303224260C02242638363C3638C
:102170000122826003618361C36043628362C36240
:102180000821016442648364C36403654365836515
:10219000C265036604F0AAFC28B908BD40F23531D7
:1021A0000848FFF783FD4FF454710648FFF77EFDA2
:1021B000C0930020045C014000EE0200FC9100206E
:1021C000245C0140B017010808B50C484FF04023CB
:1021D0000360002343608360C360036143618361E4
:1021E000C36103624362836205F056FF00B908BD14
:1021F0004FF45D710248FFF759FD00BF7493002052
:10220000B017010808B51148114B03604FF48273F1
:102210004360002383604FF44072C26003614361F6
:102220004FF400728261C3610362436283620722DA
:10223000C26203630823436305F066FF00B908BD6B
:1022400040F28E310348FFF731FD00BFD0920020ED
:1022500000380040B017010800B59BB03748384B34
:102260000360002343608360C36003614361836153
:1022700006F054F9002842D11AA94FF4805341F8CE
:10228000103D2E4806F04AFA00283DD12B4806F0B2
:102290005EF900283DD1002313931493159313A9DD
:1022A000264806F019FB002838D160230C93002241
:1022B0000D920E920F921092119212920CA91F4839
:1022C00006F082FB00282ED1002301930293039392
:1022D000049305934FF400520692079308934FF02E
:1022E000007209920A930B9301A9144806F020FB8F
:1022F000F0B9124801F0ACF91BB05DF804FB40F2F4
:10230000A5311048FFF7D2FC40F2AB310D48FFF782
:10231000CDFC4FF46C710B48FFF7C8FC4FF46E71A5
:102320000848FFF7C3FC4FF471710648FFF7BEFC85
:102330004FF475710348FFF7B9FC00BF8CB700205C
:1023400000000140B017010800B58FB025484FF0DC
:1023500080430360002343608360C3600361836143
:1023600006F0DCF828BB0EA94FF4805341F8103D6D
:102370001C4806F0D3F908BB1A4806F0E8F810BB71
:1023800000230793099307A9164806F0A5FAF8B9A0
:102390006023009300220192029204926946114840
:1023A00006F012FBC8B90F4801F052F90FB05DF802
:1023B00004FB40F2EB310C48FFF778FC40F2F131BE
:1023C0000948FFF773FC40F2F6310748FFF76EFC4F
:1023D00040F2FD310448FFF769FC40F20641024833
:1023E000FFF764FC80B80020B017010800B58FB07B
:1023F0002548264B0360002343608360C36003616C
:10240000836106F08BF828BB0EA94FF4805341F886
:10241000103D1D4806F082F908BB1B4806F097F8EE
:1024200010BB00230793099307A9174806F054FA35
:10243000F8B9602300930022019202920492694647
:10244000114806F0C1FAC8B90F4801F001F90FB000
:102450005DF804FB40F21D410D48FFF727FC40F2F8
:1024600023410B48FFF722FC4FF485610848FFF732
:102470001DFC40F22F410648FFF718FC4FF487611E
:102480000348FFF713FC00BF7CB5002000040040A8
:10249000B017010800B58FB02548264B0360002314
:1024A00043608360C3600361836106F037F830BB2B
:1024B0000EA94FF4805341F8103D1D4806F02EF947
:1024C00010BB1B4806F043F818BB00230793099381
:1024D00007A9174806F000FA00BB60230093002309
:1024E0000193029304930C226946114806F06CFA9A
:1024F000C8B90F4801F0ACF80FB05DF804FB40F22A
:102500004F410D48FFF7D2FB40F255410A48FFF713
:10251000CDFB40F25A410848FFF7C8FB40F2614149
:102520000548FFF7C3FB40F26A410348FFF7BEFBD3
:102530003CB50020000C0040B017010800B589B080
:102540001848194B0360002343608360C360036134
:102550004361836105F0E2FFA0B908A94FF48053FD
:1025600041F8103D0F4806F0D9F880B900230193D7
:102570000293039301A90B4806F0AEF960B909B0C4
:102580005DF804FB40F29A410848FFF78FFB4FF4D7
:1025900094610648FFF78AFB4FF495610348FFF703
:1025A00085FB00BF3493002000040140B0170108F0
:1025B00000B589B01348144B036000234360836067
:1025C000C3600361836105F0C2FF80B9602301939A
:1025D000002202920392059201A90A4806F0F4F93A
:1025E00050B9084801F034F809B05DF804FB40F236
:1025F000BB410648FFF75AFB40F2C4410348FFF7CE
:1026000055FB00BFC0B8002000180040B0170108FB
:1026100008B50C480C4B03604FF4E13343600023D2
:102620008360C36003610C2242618361C361036202
:10263000436206F0CEFC00B908BD40F2DB4103481E
:10264000FFF734FBFCB6002000100140B017010872
:1026500008B50C480C4B03604FF4E1334360002392
:102660008360C36003610C2242618361C3610362C2
:10267000436206F0AEFC00B908BD4FF49E6103480A
:10268000FFF714FBCCB7002000140140B01701087D
:1026900000B585B00F48104B036000234360836092
:1026A000C360836105F03AFF50B90023019303939F
:1026B00001A9084806F010F938B905B05DF804FB27
:1026C00040F27E410548FFF7F1FA40F285410348A8
:1026D000FFF7ECFA34B9002000140040B0170108ED
:1026E00000B5B5B0474B1A6C42F080521A641B6CAF
:1026F00003F080530093009B434B1A6842F440421E
:102700001A601B6803F440430193019B092328933B
:102710004FF48033299301232D9302232E934FF4FA
:1027200080022F92192230924FF4C8723192329364
:102730000823339328A806F081FC00284ED107F027
:1027400041FF00284FD10F2323930223249300231A
:1027500025934FF4A05326934FF4805327930621DB
:1027600023A806F0A7FE002842D1284B0293642339
:1027700003930223069304930593C0230793042332
:102780000993089301230A930B930C934FF400339E
:102790000D934FF400730E93002312931393189329
:1027A0001B931D934FF000622192229302A806F022
:1027B00077FF10BB06F030FF154BA3FB00308009FC
:1027C00002F02EFC042002F041FC00220F214FF009
:1027D000FF3002F0E9FB35B05DF804FB40F28F11E9
:1027E0000C48FFF763FA4FF4CB710A48FFF75EFA23
:1027F0004FF4D2710748FFF759FA40F2C11105486A
:10280000FFF754FA00380240007000406848B101F8
:10281000D34D6210B017010800B587B007F010FF64
:10282000FFF75EFFFDF7F4FEFFF742FAFFF778FAD5
:10283000FFF790FAFFF7AEFAFFF7D2FAFFF706FBC1
:10284000FFF738FBFFF76AFBFFF7C4FBFFF7E0FB7E
:10285000FFF760FCFDF7CCFEFFF7B6FCFFF7D2FCFC
:10286000FFF7FAFCFFF770FDFFF7C0FDFFF712FE60
:10287000FFF764FEFFF79CFEFFF7CAFEFFF7E8FED6
:10288000FFF706FF0D480CF05FF80D480CF0CAF892
:102890000C480DF02BFFFEF70BF8FEF78EFE01AC97
:1028A000094D0FCD0FC42B682360002101A809F04A
:1028B00011FF064B186009F0F5FEFEE7FCB600209C
:1028C0006818010894180108781701088092002000
:1028D00070B5114C2146114808F00AFA104B1870D7
:1028E000104D2946104808F003FA104B1870214685
:1028F0000F480DF073FE29460E480DF06FFE0E4E88
:1029000000222946304608F085F90022214630464B
:1029100008F080F970BD00BFC8B900204438010834
:10292000C0B90020C4B90020E0180108A4C20020EA
:10293000BC180108D018010868C0002000207047AA
:1029400008B5014603480BF0ADFB08B9012008BDEE
:10295000002008BD90F3002010B58EB01446032966
:1029600024D8DFE801F002050E1800200EB010BDDB
:1029700001AA014611480BF0A8FBC8B9029B2360CD
:10298000F4E701AA01460D480BF09FFB90B9BDF892
:102990000C302360EAE701AA014608480BF095FBDA
:1029A00050B9BDF80C305B0A2360DFE70420DDE797
:1029B0000120DBE70120D9E70120D7E790F30020D1
:1029C00010B590B0044600930B46014610480BF03A
:1029D0009EFB10B9002010B010BD03AA21460C4880
:1029E0000BF073FB9DF81930282B05D03A2B03D040
:1029F000042B01D00120EEE706480DF0EFFD06485C
:102A00000DF0ECFD0A200DF001FE0320E3E700BF0E
:102A100090F30020F4180108FC18010810B590B0DC
:102A2000044600930B46014617480BF0B9FB10B95A
:102A3000002010B010BD03AA214613480BF045FB3F
:102A40009DF81930272B13D00ED9282B01D03A2B03
:102A50000CD10E480DF0C2FD0D480DF0BFFD0A204F
:102A60000DF0D4FD0320E4E7042BF2D00120E0E7D1
:102A700006480DF0B3FD07480DF0B0FD0A200DF03B
:102A8000C5FD0220D5E700BF90F30020F41801082F
:102A9000FC180108141901087047704770470000BE
:102AA00008B5024B186809F07FFE08BD880C0020AD
:102AB00003460D4A126862B10B4A10680B4A12684D
:102AC0001268A2F5005203449A4206D3064A1360E4
:102AD00070470749044A1160EEE70C22054B1A6063
:102AE0004FF0FF30704700BF8C0C002008ED00E075
:102AF00010FC0020A8FA002070B51646002405E05E
:102B00004D1C0878FFF7BAF801342946B442F7DBC8
:102B1000304670BD4FF0FF3070474FF400534B60AC
:102B2000002070470120704700207047F8B50D461F
:102B30001746002405E06E1CAFF3008028700134B6
:102B40003546BC42F7DB3846F8BD000004290CD0FE
:102B5000052902D0022904D070470322054B1A70C0
:102B600070470222034B1A7070470122014B1A7002
:102B7000F2E700BF900C002010B5074C0122074976
:102B800020460AF03BF8064920460AF077F820462E
:102B90000AF00DF910BD00BF90F300204D2B000886
:102BA000140000200368B3F1A04F00D0704710B5A7
:102BB00088B04FF4E0530393022304930024059458
:102BC000032306930A23079303A9104807F016F975
:102BD0000F4B5A6B42F080025A635A6B02F080022C
:102BE0000192019A5A6C42F480425A645B6C03F47D
:102BF00080430293029B22460521432002F0D4F930
:102C0000432002F001FA08B010BD00BF00000240EE
:102C10000038024008B5D0F8BC020AF0D5F808BD6B
:102C200008B5D0F8BC020AF078FA08BD08B5D0F8AB
:102C3000BC020AF08DFA08BD08B5D0F8BC020AF053
:102C4000B1FA08BD08B5D0F8BC020AF0C6F808BD54
:102C500008B5D0F8BC020AF0C4F808BD90F8C0333B
:102C6000012B01D00020704710B504461048C0F871
:102C7000BC42C4F8C4034FF0A04303600823836040
:102C80000323C3600023036102228261C36100F059
:102C90001FFF40B9064801F02EFC014620460AF00D
:102CA00090F8002010BDEE210248FEF7FFFFF1E78B
:102CB00064F700203419010808B5D0F8C40301F006
:102CC000E0FB18B1022803D0022008BD002008BD97
:102CD000012008BD08B5D0F8C40301F0E8FB18B125
:102CE000022803D0022008BD002008BD012008BD35
:102CF00008B5D0F8C40301F003FC18B1022803D0D2
:102D0000012008BD002008BD022008BD08B5D0F88C
:102D1000C40301F0DEFB18B1022803D0022008BD75
:102D2000002008BD012008BD08B5D0F8C40301F09B
:102D3000DCFB08BD10B584B0D0F8C403BDF820405A
:102D400002949DF81C4001949DF81840009400F0F6
:102D50005DFE20B1022804D0022004B010BD002086
:102D6000FBE70120F9E708B5D0F8C40300F09EFEA8
:102D700018B1022803D0022008BD002008BD0120A0
:102D800008BD10B584B0D0F8C4039DF82440039466
:102D9000BDF820400294079C01949DF818400094CF
:102DA00000F0D8FE20B1022804D0022004B010BDEB
:102DB0000020FBE70120F9E708B5D0F8C40301F0D3
:102DC0008DFB08BD08B590F8C033012B04D0C82096
:102DD00007F054FC002008BD084600F033F8F6E781
:102DE00010B4D0F8C43301EB8104E0000446184469
:102DF00090F83B0048B901EB8101C800034483F817
:102E0000512000205DF8044B7047234483F8502084
:102E1000F7E7D0F8C43301EB8100C20010461A4432
:102E200092F83B2032B901EB8101CA00134493F8B8
:102E300051007047034493F85000704708B507F0FD
:102E40001DFC08BD08B528B100222021024807F06A
:102E500061F908BD0122F8E7000C024008B50248FC
:102E60000BF0E0FDFEE700BF4419010808B5024B76
:102E7000186F07F0B7FA08BD308E002008B5024B76
:102E8000D86E07F0AFFA08BDB48E00207047FEE799
:102E9000FEE7FEE7FEE7704708B509F04BFD08BD09
:102EA00008B5024805F0CCF908BD00BF24FA00209F
:102EB00008B5024800F026FD08BD00BF78DB002001
:102EC00008B5024801F034FA08BD00BF64F70020DD
:102ED00008B5024803F0F3F908BD00BFBCB50020F7
:102EE00008B5024802F0ABFA08BD00BF40B80020A8
:102EF0002C4B1B6803B17047F0B587B00122294BFA
:102F00001A60294B9A6B42F001029A639B6B03F0A3
:102F100001030093009B4FF68373019302270297EE
:102F200000260396032504950C24059401A91F4847
:102F300006F064FF48F23313019302970396049559
:102F4000059401A91A4806F059FF4CF20373019346
:102F5000029703960495059401A9164806F04EFFC2
:102F60004FF63F030193029703960495059401A938
:102F7000114806F043FF2823019302970396049516
:102F8000059401A90D4806F039FF08230193029723
:102F900003960495059401A9094806F02FFF07B090
:102FA000F0BD00BF940C0020003802400010024029
:102FB00000180240000C024000140240001C0240B5
:102FC0000008024000B583B0214B1A6C42F08052D9
:102FD0001A641A6C02F080520092009A5A6C42F401
:102FE00080425A645B6C03F480430193019B03208D
:102FF00001F0C8FF002211466FF00B0001F0D4FF72
:10300000002211466FF00A0001F0CEFF00221146A7
:103010006FF0090001F0C8FF002211466FF00400B4
:1030200001F0C2FF002211466FF0030001F0BCFF67
:1030300000220F216FF0010001F0B6FF00220F21E6
:103040004FF0FF3001F0B0FF03B05DF804FB00BFAC
:10305000003802400268134B9A4200D0704730B5E6
:1030600087B003F58B335A6C42F480625A645B6C10
:1030700003F480630093009B4FF4F86301930325EE
:1030800002950024039401A9074806F0B7FE012326
:1030900001930295039401A9044806F0AFFE07B01E
:1030A00030BD00BF00220140001402400000024079
:1030B0000268094B9A4200D0704782B003F5006362
:1030C0001A6B42F480521A631B6B03F48053019312
:1030D000019B02B0F0E700BF003002400268244BC1
:1030E0009A4200D0704770B586B0224B5A6B42F0BE
:1030F00001025A635B6B03F001030093009B6023A2
:103100000193022602960024039404940D2505954C
:1031100001A9194806F072FE082301930296039450
:103120000494059501A9154806F068FE4FF4007354
:103130000193029603940494059501A9104806F0A2
:103140005DFE4FF4BC4301930296039404940595ED
:1031500001A90C4806F052FE5023019302960394F5
:103160000494059501A9084806F048FE06B070BD14
:10317000000005500038024000100240000C0240E0
:1031800000180240001C02400000024002680E4B82
:103190009A4200D0704700B583B0A3F5F0431A6B94
:1031A00042F400021A631B6B03F400030193019BBA
:1031B000002205215A2001F0F7FE5A2001F024FFD9
:1031C00003B05DF804FB00BF00B0024000B589B059
:1031D00003681E4A934205D01D4A93421CD009B091
:1031E0005DF804FB4FF4407303931223049301230F
:1031F0000593002306930423079303A9154806F0BB
:10320000FDFD154B1A6C42F400121A641B6C03F49A
:1032100000130193019BE2E74FF4C0730393122361
:10322000049301230593032306930423079303A91F
:103230000A4806F0E3FD084B1A6C42F400021A64D7
:103240001B6C03F400030293029BC8E70054004088
:10325000005C00400004024000380240001C0240B4
:1032600008B503680F4A934203D00F4A93420CD02B
:1032700008BD02F5F232136C23F4001313644FF40B
:1032800040710A4806F0A8FE08BD02F5EE32136C44
:1032900023F4000313644FF4C071054806F09CFE4C
:1032A000E6E700BF00540040005C0040000402401C
:1032B000001C024002682A4B9A4200D0704770B549
:1032C00086B003F550435A6C42F080625A645B6CDE
:1032D00003F080630093009B102301930225029565
:1032E0000024039404940E26059601A91D4806F0B7
:1032F00085FD4EF6FF7301930295039404940596A1
:1033000001A9194806F07AFDF72301930295039469
:103310000494059601A9154806F070FD4FF48053FA
:1033200001930295039404940923059301A910487D
:1033300006F064FD4FF44643019302950394049410
:10334000059601A90B4806F059FD22460521582093
:1033500001F02AFE582001F057FE06B070BD00BFF4
:103360000068014000100240002402400028024092
:1033700000180240002002400268254B9A4200D00B
:1033800070472DE9F04387B0224B9A6B42F002025E
:103390009A639B6B03F002030093009B4FF00409B8
:1033A000CDF8049002260296002503950324049488
:1033B000092705970DEB0901174806F01FFD40236B
:1033C00001930296039504940A230593DFF8508035
:1033D0000DEB0901404606F011FDCDF80490029670
:1033E0000395049405970DEB0901404606F006FD90
:1033F0004FF46053019302960395049405970DEBE7
:103400000901064806F0FAFC07B0BDE8F08300BFEA
:10341000001000A00038024000100240000C0240E2
:10342000000402400268054B9A4200D07047044AEB
:10343000136F43F400431367F8E700BF0028004010
:10344000003802400268164B9A4200D07047F0B52F
:1034500087B003F586335A6C42F400625A645B6CA1
:1034600003F400630093009B4FF4F8530193022789
:10347000029700260396032504950C24059401A9C0
:10348000084806F0BBFC04230193029703960495B9
:1034900005940DEB0301044806F0B0FC07B0F0BD45
:1034A000002C014000080240000C02400368B3F108
:1034B000402F00D0704700B587B003F5FC331A6C7D
:1034C00042F480321A641B6C03F480330093009B37
:1034D0008023019302230293002303930493082380
:1034E000059301A9024806F089FC07B05DF804FBCA
:1034F000000C02400268154B9A4200D0704770B52C
:1035000086B003F500331A6C42F480421A641B6CD7
:1035100003F480430093009B02250195029500244B
:10352000039404940526059601A9094806F066FC53
:103530004FF440430193029503940494059601A926
:10354000044806F05BFC06B070BD00BF00380040C8
:10355000002002400004024086B003682B4A9342D8
:1035600010D0B3F1804F18D0294A934221D0294A74
:10357000934229D0284A934231D0284A934239D0E5
:1035800006B07047264B5A6C42F001025A645B6CDD
:1035900003F001030093009BF2E703F50E331A6C6E
:1035A00042F001021A641B6C03F001030193019BBA
:1035B000E6E71B4B1A6C42F002021A641B6C03F024
:1035C00002030293029BDBE7154B1A6C42F00802E0
:1035D0001A641B6C03F008030393039BD0E7104BA2
:1035E0001A6C42F020021A641B6C03F0200304934F
:1035F000049BC5E70A4B5A6C42F002025A645B6CAA
:1036000003F002030593059BBAE700BF00000140E9
:1036100000040040000C0040001400400004014081
:10362000003802400268094B9A4200D0704782B0CD
:1036300003F508331A6C42F040021A641B6C03F065
:1036400040030193019B02B0F0E700BF0018004067
:1036500000B587B003682C4A93420ED0B3F1804F77
:103660001AD02A4A934226D0294A934230D0294A76
:1036700093423AD007B05DF804FB4FF48073019396
:10368000022302930023039304930123059301A9CA
:10369000214806F0B3FBEDE74FF40043019302230A
:1036A00002930023039304930123059301A91A486D
:1036B00006F0A4FBDEE7102301930223029300220D
:1036C00003920492059301A9144806F097FBD1E7F1
:1036D0000123019302230293002203920492059393
:1036E00001A90F4806F08AFBC4E740230193022397
:1036F00002930023039304930923059301A9094826
:1037000006F07CFBB6E700BF00000140000400406B
:10371000000C00400018004000000240000402407D
:1037200000200240001C024070B588B00368224AA5
:10373000934204D0214A934224D008B070BD204B5C
:103740005A6C42F010025A645B6C03F01003019350
:10375000019B80230393022604960024059406947B
:103760000725079503A9174806F048FB4FF4007397
:103770000393049605940694079503A9124806F04E
:103780003DFBDAE70E4B5A6C42F020025A645B6C48
:1037900003F020030293029BC023039302230493AC
:1037A00000230593032306930823079303A90748DF
:1037B00006F024FBC1E700BF0010014000140140E7
:1037C00000380240000402400000024000080240AD
:1037D00008B5FFF78DFB08BD10B588B00446026838
:1037E000224B9A4205D02268214B9A421FD008B042
:1037F00010BD204B1B684BB91F4A516C41F40001AE
:103800005164526C02F400020192019A0133194A88
:103810001360F0230393022304930023059306937C
:103820000A23079303A9154806F0E8FADBE7114BD2
:103830001B684BB9104A516C41F400015164526C41
:1038400002F400020292029A01330A4A13604FF412
:1038500080630393022304930023059306930A23B2
:10386000079303A9064806F0C9FAC0E7045C0140C3
:10387000245C0140980C00200038024000200240E7
:103880000018024000B589B000220146362001F040
:103890008BFB362001F0B8FB154B1A6C42F010027E
:1038A0001A641B6C03F010030193019B02A903A887
:1038B00005F0D8FE05F0B6FE43000E48A0FB03233A
:1038C0009B0C013B0C480D4A026040F2E732C2609B
:1038D000436000230361836004F020FE18B10120DF
:1038E00009B05DF804FB044804F09AFCF8E700BF57
:1038F0000038024083DE1B4324FA00200010004001
:103900007047704710B50446036841F214029A5894
:1039100012F0400F11D141F214029B5813F0010F25
:1039200019D1226841F214034FF48031D15022683A
:10393000D35813F4004F1BD110BDFFF7B1F8226824
:10394000402141F21403D150012384F84430002374
:1039500084F84530E5E7FFF7D3FF2168012341F202
:1039600014028B5084F84430002384F84530D8E7A3
:103970002046FFF7C6FF22684FF4004141F21403CE
:10398000D150012384F84430002384F84530D3E734
:10399000F8B50668346A04F00F07C4F34343C4F370
:1039A0000A14022B2ED16CB307EB8702D300034419
:1039B000596C39B305462246304600F061FEBA0024
:1039C0003A44D3002B445A6C22445A64DA6C2244A1
:1039D000DA6406EB4713D3F810150B4A0A408AB194
:1039E000D3F8002522F0804242F00042C3F80025BF
:1039F000BB00D919CA002A4492F8503083F0010361
:103A000082F85030F8BD00BF0000F81FF0B585B057
:103A10009DF828509DF82C60BDF8307090F8B842A1
:103A2000012C41D0012480F8B8424FEA810E8E4427
:103A30004FEACE0404444FF0000E84F83DE084F8D1
:103A40003830A4F8407084F8391084F83F6002F0F0
:103A50007F0E84F83AE012F0800F1BD101EB810E4B
:103A60004FEACE0404444FF0000E84F83BE00446D5
:103A700001EB810E4FEACE00204480F83C500297C3
:103A800001960095206800F0F7FE002384F8B83214
:103A900005B0F0BD01EB810E4FEACE0404444FF0B7
:103AA000010E84F83BE0E2E70220F1E790F8B8323B
:103AB000012B01D10220704710B50446012380F884
:103AC000B832006800F05EFF002084F8B80210BD34
:103AD00000283DD0F0B58BB0064690F8B93293B3CC
:103AE000032386F8B932306800F072FD344654F88A
:103AF00010EB6D460FCC0FC50FCC0FC594E803003B
:103B000085E80300371D97E80E00704600F01CFDA5
:103B10000121306800F062FD344654F810EB6D4628
:103B20000FCC0FC50FCC0FC594E8030085E8030048
:103B300097E80E00704600F021FE012386F8B932A6
:103B400000200BB0F0BD80F8B832FFF72BF8C7E7C4
:103B500001207047F8B59DF81870BDF820608D0001
:103B60000D44EC00044484F83B2084F83F306FB9E6
:103B700001EB8105EC000444032584F84250032B3B
:103B800000F29580DFE803F00A8C2E5D01EB8105E1
:103B9000EC000444022584F84250F0E7012F08BFEE
:103BA000002A40F0848036B901EB8102D30003443F
:103BB000012283F8512001EB8102D300034493F8E2
:103BC00051303BB901EB8102D3000344002283F85A
:103BD00042206CE001EB8102D3000344022283F80F
:103BE000422064E0B2B901EB8102D300034493F8B0
:103BF00051303BB901EB8102D3000344002283F82A
:103C0000422054E001EB8102D3000344022283F8F6
:103C100042204CE001EB8102D300034493F8503082
:103C20003BB901EB8102D3000344002283F8422018
:103C30003DE001EB8102D3000344022283F84220DD
:103C400035E0B2B901EB8102D300034493F851305F
:103C50003BB901EB8102D3000344002283F84220E8
:103C600025E001EB8102D3000344022283F84220C5
:103C70001DE001EB8102D300034493F850303BB9BF
:103C800001EB8102D3000344002283F842200EE0BE
:103C900001EB8102D3000344022283F8422006E0B4
:103CA00001EB8102D3000344002283F842208A0002
:103CB0005418E3000344079C5C649E64002483F86A
:103CC0005C40DC6483F8391083F85D401144CB001C
:103CD00003F13801027C0144006800F0CFFEF8BD1A
:103CE00030B583B005460468D4F840340193D4F865
:103CF00040340093009B23F02E030093019B13F0AC
:103D0000020F07D0019B13F0010F28D1009B43F055
:103D100002030093019B13F0080F13D0009B43F0A4
:103D200008030093019B13F0040F34D0AB69022BFE
:103D30001CD0EB68032B29D02846FEF783FF2846CA
:103D4000FEF76EFF019B13F0200F03D0009B43F0A2
:103D500020030093009BC4F8403403B030BDA36936
:103D600023F00053A361FEF75BFFCFE7019B03F451
:103D7000C023B3F5802F04D00121286800F09CFCFB
:103D8000DAE70221286800F097FCD5E74EF66022BA
:103D9000C4F80424D0E72846FEF75AFFD4F840348C
:103DA00023F02E03C4F840342A68936943F000538B
:103DB0009361C7E7F8B506460D46076807EB41175C
:103DC00007F5A064A36813F0040F37D00423A360A1
:103DD000E36843F00203E360A36813F4007F63D158
:103DE000A36813F0010F00F0888033694BB1AA007B
:103DF0002A44D30033449A6C2169C1F31201521A48
:103E0000DA64AA002A44D3003344012283F85D20F7
:103E100000219965A26093F83F30022B18BF8B42B6
:103E20004ED0032B57D0AB005919CA00324492F838
:103E3000503083F0010382F85030F8BDA36813F0CE
:103E4000200F02D02023A360C6E7A36813F0080F59
:103E500017D1A36813F4806FBED0E36843F0020368
:103E6000E360006800F08EFD1023A36005EB85027F
:103E7000D3003344082283F85D204FF48063A360AD
:103E8000AAE7E36843F00203E36001EB8102D30099
:103E90000344052283F85D201023A3600823A36058
:103EA000006800F06FFD97E7E36843F00203E3600A
:103EB0002946306800F066FD4FF40073A360F8BD3A
:103EC000E36843F00203E3602946306800F05AFDDE
:103ED0001023A360A7E7D7F8003543F00053C7F8D5
:103EE000003505EB8502D3003344012283F85C20C2
:103EF00029463046FEF7A0FE95E7A36813F0020FAF
:103F000062D0E36823F00203E36005EB8502D3008F
:103F1000334493F85D30012B20D0052B32D0082B91
:103F200018BF062B3ED1AA002A44D30033449A6D11
:103F300001329A65032A2DD9AA002A44D3003344BA
:103F400000229A65042283F85C20D7F8003523F01C
:103F5000804343F00043C7F8003506E005EB8502D7
:103F6000D3003344012283F85C200223A36005EBD5
:103F70008502D300334493F85C2029463046FEF78F
:103F80005BFEF8BD05EB8502D3003344052283F8C0
:103F90005C20EAE705EB8502D3003344022283F874
:103FA0005C20D2E7032BE0D105EB8502D30033443C
:103FB000022283F85C20D7F8003523F0804343F0D9
:103FC0000043C7F80035D0E7A36813F0800F1AD17B
:103FD000A36813F0100F15D005EB8502D30033440E
:103FE00093F83F30032B26D0022B18BF002B07D1AC
:103FF00005EB8502D300334400229A6533694BB345
:104000001023A360F8BDE36843F00203E360AB0054
:104010005919CA003244916D013191652B44DA007F
:104020003244062382F85D302946306800F0AAFC4D
:104030008023A360F8BD05EB8502D3003344002242
:104040009A65E36843F00203E3602946306800F0B4
:1040500099FCD5E705EB8502D3003344032283F8AE
:104060005D20E36843F00203E3602946306800F016
:1040700089FCC5E7F8B5036803EB411303F5A064B9
:10408000A26812F0040F11D10E460546A26812F084
:10409000200F26D02023A36001EB8102D3001A4613
:1040A000034493F83D30012B07D0F8BD0423A360EF
:1040B000E36843F00203E360F8BD8B000244002193
:1040C00082F83D103344DA000244022382F85C3067
:1040D000E36843F00203E3603146006800F052FCFD
:1040E000F8BDA26812F0400F34D1A26812F4007F2C
:1040F0004AD1A26812F0010F51D1A26812F0080F44
:1041000062D1A26812F0100F6FD08A000A44D30067
:10411000034400229A65032283F85D2093F83D3022
:104120006BB901EB8102D300034493F83C3033B9FF
:1041300001EB8102D3000344012283F83D20E368B0
:1041400043F00203E3603146286800F01BFC1023B3
:10415000A360F8BD8B005918CA000244042182F8FC
:104160005D10012182F83D103344DA00024400233F
:104170009365E36843F00203E3603146006800F0B2
:1041800001FC4023A360F8BDE36843F00203E36051
:10419000006800F0F7FB4FF40073A360F8BD8F00D8
:1041A0007A18D300034400229A65E36843F00203BF
:1041B000E360006800F0E6FB0123A360B919C800C2
:1041C000284480F85D30F8BD0823A360E36843F01D
:1041D0000203E360006800F0D5FB06EB8601C8002F
:1041E0002844052380F85D30F8BDA26812F0800FE6
:1041F0003AD1A26812F4806F47D1A26812F0020F80
:104200003FF453AFE26822F00202E26001EB810169
:10421000CA001146024492F85D20012A49D0032ABF
:1042200066D0042A6CD0052A72D0082A18BF062A44
:1042300048D1B1003144CA000244916D0131916509
:1042400003296DD9B1003144CA00024400219165AF
:10425000042182F85C10D3F8002522F0804242F05D
:104260000042C3F800252DE0E36843F00203E36059
:10427000006800F087FB06EB8601CB002B4406228A
:1042800083F85D208023A360F8BDE36843F0020358
:10429000E360006800F076FB1023A3604FF48063B6
:1042A000A36006EB8601CB002B44082283F85D2037
:1042B000F8BD0B460344012283F85C2093F83F309D
:1042C000022B0CD00223A36006EB8602D3002B4402
:1042D00093F85C2031462846FEF7AEFCE5E60B4637
:1042E000034493F8512082F0010283F85120E9E75A
:1042F00006EB8602D3000344022283F85C20E1E748
:1043000006EB8602D3000344022283F85C20D9E73F
:1043100006EB8602D3000344052283F85C20D1E734
:1043200006EB8601CA000244022182F85C1092E783
:10433000F8B504460568284600F0BAF9012800D00F
:10434000F8BD206800F0B0F90028F9D0206800F02E
:10435000ABF910F4001F03D023684FF400125A6128
:10436000206800F0A1F910F4801F03D023684FF4F7
:1043700080125A61206800F097F910F0806F03D026
:1043800023684FF080625A61206800F08DF910F0C8
:10439000020F02D0236802225A61206800F084F9DB
:1043A00010F0005F28D1206800F07EF910F0807FC7
:1043B00034D1206800F078F910F0080F32D120686D
:1043C00000F072F910F0007F33D1206800F06CF932
:1043D00010F0100F53D00123002BB1D02268936945
:1043E00023F0100393612046FFF7D2FA2268936905
:1043F00043F010039361A3E7D5F8403423F02E0374
:10440000C5F840342046FEF711FC0121206800F079
:1044100053F923684FF000525A61C4E72046FFF772
:104420005FFCC6E72046FEF7F5FB236808225A61C9
:10443000C5E7206800F0A1FA0746002604E0F1B2C3
:104440002046FFF717FE0136A3689E4212D206F0FF
:104450000F0327FA03F313F0010FF4D005EB461313
:10446000D3F8003513F4004FE9D0F1B22046FFF73E
:10447000A1FCE8E723684FF000725A61A5E700232A
:10448000AAE738B590F8B832012B01D1022038BD27
:104490000446012580F8B852006800F093F82946D8
:1044A000206800F048F9002084F8B80238BD90F880
:1044B000B832012B01D10220704710B50446012308
:1044C00080F8B832006800F085FB002084F8B8025C
:1044D00010BD08B5006800F00FF908BD01EB8101BF
:1044E000CB00184490F85C00704701EB8101CB00D1
:1044F0001844C06C704708B5006800F0B8F908BDF2
:1045000008B5006800F0A8F908BD000000230133D9
:104510000C4A934211D80269002AF8DA036943F081
:104520000103036100230133064A934207D802695D
:1045300012F0010FF7D100207047032070470320CD
:10454000704700BF400D030084B010B5044603A8B7
:1045500080E80E00089B012B11D0E36843F0400374
:10456000E3602046FFF7D2FF4FF48033A363069B3E
:10457000012B1CD00020BDE8104004B07047A36B95
:1045800023F48033A363E2680D4B1340E360E368D8
:1045900023F44013E3600F9B012B03D02046FFF769
:1045A000B5FFE4E7E36843F48013E360F6E7A3684C
:1045B00043F00603A360A36843F02003A360D9E798
:1045C000BFFFBDFF836843F0010383600020704795
:1045D000836823F0010383600020704708B5C36837
:1045E00023F0C043C360012909D069B9C36843F00F
:1045F0008043C360322006F041F8002008BDC36844
:1046000043F00053C360F5E7012008BD890141F084
:104610002001016100230133054A934205D8026954
:1046200012F0200FF7D1002070470320704700BF21
:10463000400D03001023036100230133054A934218
:1046400005D8026912F0100FF7D10020704703203F
:10465000704700BF400D030070B49DF80C4064B972
:1046600003339E0807E000EB023303F5805351F853
:10467000045B1D600134B442F5D3002070BC704768
:1046800003329208002393420CD210B400F58054F8
:10469000246841F8044B01339342F7D308465DF890
:1046A000044B704708467047426980691040704764
:1046B000406900F00100704710B400F58064D0F844
:1046C000003423F00303C0F80034D0F8003401F0C4
:1046D00003021343C0F80034012905D0022907D092
:1046E00000205DF8044B70474BF680336360F7E7BA
:1046F00041F270736360F3E730B583B00446002580
:104700000195D0F840340193019B23F02E030193CF
:10471000019B43F48073C0F84034642005F0AEFF81
:10472000019B23F48073C4F840340A2005F0A6FFEF
:10473000284603B030BD82B000230193D0F8403446
:104740000193019B23F02E030193019B13F4805FDF
:1047500001D101290CD0019B13F4805F05D021B950
:10476000019B23F48053C0F84034002002B070470E
:10477000019B43F48053C0F84034ECE784B038B573
:10478000044605A880E80E0025460023C4F8003E34
:10479000A36B23F40013A363079B032B0ED0D4F861
:1047A000003423F00403C4F8003410212046FFF73E
:1047B0002DFF2046FFF73EFF002213E0B4F1A04F8B
:1047C000EDD0D4F8003443F00403C4F80034ECE72F
:1047D00005EB42134FF0FF31C3F808150021C3F871
:1047E0000C150132069B9A42F2D301212046FFF7B5
:1047F000A2FFC82005F042FF0023A3614FF0FF3362
:104800006361B4F1A04F17D04FF40073636203F1FA
:104810008073A3620D4BC4F80031089B1BB9A369D8
:1048200043F01003A361A269094B1343A361002065
:10483000BDE8384004B070478023636203F5C003CD
:10484000A362044BC4F80031E7E700BF0003E000B7
:10485000080020A3E000400082B000230193D0F8BC
:10486000403401930198C0F3414002B0704700F515
:104870008060806880B27047F0B59DF8184000EB0A
:10488000411505F5A0664FF0FF37B760032C63D8DC
:10489000DFE804F00254021740F29D47F76012F07F
:1048A000800F08D1B0F1A04F58D0F76847F06007EB
:1048B000F76000260CE0F76847F48077F760002681
:1048C00006E040F29D67F76012F0800F30D10026BD
:1048D000D0F8187401F00F014FF0010E0EFA01F13B
:1048E0003943C0F81814816941F00071816112F0F8
:1048F000800F35D100209DF81410022933D00021FB
:104900009B0503F0FE53D20202F4F0421343A204CB
:1049100002F440221343BDF81C20C2F30A021343E1
:1049200003430B43C5F80035032C1FD03046F0BDC0
:10493000F76847F48077F7600026C9E740F225273B
:10494000F76012F0800F01D10026C1E7F76847F445
:10495000C077F7600026BBE70126B9E70026B7E776
:104960004FF40040C7E74FF40031C9E7D5F80035F0
:1049700043F00053C5F80035D8E700F58060406982
:1049800080B2704710B400EB411101F5A064D1F87A
:104990000035C3F38143022B18BF002B2BD1D1F874
:1049A000003543F08043C1F80035C36A13F47F0F2C
:1049B0001AD1D1F8003523F00043C1F80035D1F801
:1049C000003543F00043C1F80035D1F8003523F439
:1049D0000043C1F8003500230133B3F57A7F36D8A0
:1049E0002268002AF8DB32E0D1F8003543F00043BA
:1049F000C1F800352BE0D1F8003543F08043C1F811
:104A00000035D0F8103413F47F0F1AD1D1F80035E7
:104A100023F00043C1F80035D1F8003543F00043DE
:104A2000C1F80035D1F8003523F40043C1F8003552
:104A300000230133B3F57A7F09D82268002AF8DB16
:104A400005E0D1F8003543F00043C1F800350020FF
:104A50005DF8044B7047000000EB4111064AC1F8B5
:104A60001025D1F8003523F0804343F00043C1F80E
:104A700000350020704700BF00000880F0B583B00B
:104A80004B78B0F1A04F07D00C792CB912B94C7902
:104A9000012C11D0012A13D00C69E4B10D892C44EA
:104AA000013CB4FBF5F4A4B2B4F5807F14D92D0217
:104AB0000D614FF480740FE01946FFF7CDFF75E0EC
:104AC00000EB4314D4F80C5525F06005C4F80C55E0
:104AD00000244C71E0E70124CD781DB10D8905FB60
:104AE00004F50D6100EB43130D69C5F31205374F53
:104AF00007EAC4442C438D7A6D0705F0C0452C436A
:104B0000C3F8104512B1CC68C3F8144500F58066AF
:104B1000B46814F0010FD3F8004524F00054C3F832
:104B20000045D3F800450CBF4FF0005500252C433D
:104B3000C3F80045D3F80055254C2560256825F0BD
:104B400080452560CC78C4B1214D2C6844F40044E4
:104B50002C601F4C256845F0004525602468C3F88B
:104B600000451ABBCB780BBB0B69FBB1CA79032A92
:104B700014D8DFE802F0081E081E154D2C6824F436
:104B800000442C60E5E70333C26A92B2C3F38F039B
:104B9000934203D9836943F020038361CC684A7848
:104BA0000B8A002100912146FFF756FD002003B03B
:104BB000F0BD0333326992B2C3F38F039342EDD950
:104BC000836943F080638361E8E700BF0000F81F5A
:104BD0009C0C002070B505460446FFF7F9FC102137
:104BE0002846FFF713FD2846FFF724FD00220AE0C0
:104BF00004EB4211D1F8003523F0802343F08043C9
:104C0000C1F8003501320F2AF2D90020034600E036
:104C100001300F2813D804EB401606F5A061D6F832
:104C2000002522F4004242F04042C6F8002501333C
:104C3000B3F57A7FECD80A68002AF8DBE8E74FF092
:104C4000FF33C5F814346B612846FFF7BBFC002026
:104C500070BD0000494B5A6822F440325A605A68CD
:104C600041680A435A600268536823F480735360B2
:104C700002685368016943EA01235360026853687C
:104C800023F0407353600268536881680B4353609C
:104C90000268936823F40063936002689368C168B4
:104CA0000B439360826A364B9A4249D002689368FC
:104CB00023F07063936002689368816A0B4393608A
:104CC0000268936823F04053936002689368C16A56
:104CD0000B4393600268936823F0020393600268B9
:104CE0009368816943EA41039360036A002B32D1E0
:104CF0000268536823F4006353600268D36A23F4A4
:104D00007003D3620168CB6AC269013A43EA025375
:104D1000CB620268936823F400739360026893681F
:104D2000016B43EA412393600268936823F4806334
:104D3000936002689368416943EA812393607047F6
:104D40000268936823F0706393600268936823F0AD
:104D500040539360BEE70268536843F400635360B6
:104D60000268536823F46043536001684B68426AE9
:104D7000013A43EA42334B60BFE700BF00230140E2
:104D80000100000F20B310B50446036C43B1236C3F
:104D900013F0100F0AD00120002384F83C3010BD1E
:104DA000436480F83C30FEF755F9F0E7226C094B7C
:104DB000134043F0020323642046FFF74BFF00201B
:104DC0006064236C23F0030343F001032364E3E7EF
:104DD00001207047FDEEFFFF30B482B00023019345
:104DE00090F83C30012B00F0C080012380F83C306B
:104DF0000B68092B22D90568EA689BB203EB4303D1
:104E00001E3B072404FA03F322EA0303EB600B685A
:104E1000574A93420BD00568EA688C689BB203EB53
:104E200043031E3B04FA03F31343EB601BE00268E9
:104E3000D3688C6843EA0463D36014E005682A6988
:104E40009BB203EB4303072404FA03F322EA0303B0
:104E50002B6105682A698C680B8803EB430304FA0D
:104E600003F313432B614B68062B24D805686A6B48
:104E700003EB8303053B1F2404FA03F322EA030335
:104E80006B6305686A6B4B6803EB8303053B0C8817
:104E900004FA03F313436B630268364B9A423AD029
:104EA0000268344B9A423FD0002380F83C301846C9
:104EB00002B030BC70470C2B16D805682A6B03EB88
:104EC0008303233B1F2404FA03F322EA03032B6327
:104ED00005682A6B4B6803EB8303233B0C8804FAB9
:104EE00003F313432B63D7E70568EA6A03EB8303F5
:104EF000413B1F2404FA03F322EA0303EB62056833
:104F0000EA6A4B6803EB8303413B0C8804FA03F322
:104F10001343EB62C0E70B68122BC1D1164A5368EA
:104F200043F480035360BBE70B68114A112B18BF91
:104F30009342B9D1104A536843F4000353600A689E
:104F40000B4B9A42B0D10D4B1B680D4AA2FB0323B9
:104F50009B0C03EB83035A00019202E0019B013B8F
:104F60000193019B002BF9D19EE70220A0E700BF2F
:104F70001200001000200140002301400C0000201E
:104F800083DE1B430649CB6823F4E0631B041B0C40
:104F9000000200F4E0600343024A1A43CA6070470B
:104FA00000ED00E00000FA0530B4144BDB68C3F3F9
:104FB0000223C3F10704042C28BF04241D1D062D61
:104FC00013D9033B012505FA04F4013C2140994023
:104FD00005FA03F3013B13401943002807DB0901DD
:104FE000C9B2074B195430BC70470023EAE700F000
:104FF0000F000901C9B2034B1954F4E700ED00E0BA
:1050000000E400E014ED00E0420900F01F0001237D
:1050100003FA00F0014B43F82200704700E100E082
:105020000138B0F1807F0AD2064B5860F021064A61
:1050300082F823100020986007221A607047012030
:10504000704700BF10E000E000ED00E0042805D04C
:10505000054A136823F0040313607047024A13687B
:1050600043F004031360704710E000E0002838D0DC
:1050700010B50446437F1BB30223637723791BBB20
:105080002368194A5A612268936823F018039360D1
:10509000637913BB23684FF0FF321A61226893686B
:1050A00023F0600361690B4393602268936823F0E7
:1050B0008003A1690B43936001236377002010BD37
:1050C0000377FDF7F5FFD7E7E268A168204600F017
:1050D0000DF80028DCD0012010BD236822691A6178
:1050E000DCE70120704700BFB71DC10410B41F23C7
:1050F00000E0234621FA03F414F0010F03D15C1EF3
:10510000002BF6D12346102A13D0182A0DD0082AD6
:1051100013D00368596101688B6823F018031A43A0
:105120008A6000205DF8044B7047062BF1D90120FE
:10513000F8E7072BEDD90120F4E70F2BE9D901207F
:10514000F0E70000002844D010B5044690F8353050
:10515000002B2ED0022384F83530226811681E4BB4
:105160000B40136022681168636860690343E0685C
:10517000034320690343A0680343A0690343206AF3
:105180000343606A0343A06A0343E06A0343206B5E
:1051900003430B4313606368102B0DD02268D36860
:1051A00043F01E03D3600020E064012384F835300F
:1051B00010BDFDF793FFCDE72268237F617F43EAAF
:1051C0000123A17F43EA0143E17F43EA0163936145
:1051D000E4E70120704700BF07F0E0FF70B4066805
:1051E000746C04F04044039D45EA03431C4374641B
:1051F0000368DA634368B3F5403F03D00368D960BE
:1052000070BC704701F07F4601F47F0301F47F45D5
:10521000CAB284687CB1012C10D0022C11D0032CAE
:1052200017D0360F190D2D0B090241EA051141EA7D
:10523000063141EA121103689963E1E721F07F41E9
:10524000F9E7DB0CAD0AD90241EA451141EAD20186
:10525000F1E7F60FDB0CED0A990241EA451141EA4C
:10526000C63141EAD201E6E738B310B5044690F8FA
:105270003930EBB1022384F839302268136823F403
:10528000403361680B4313602268536B23F00703BC
:10529000A1680B4353632268116C094B0B40E16812
:1052A0000B4313640020E063012384F8393010BD00
:1052B00080F83830FDF76AFFDCE70120704700BF57
:1052C00000C0FFFF10B582B090F83840012C02D129
:1052D000022002B010BD0446012084F838000220EC
:1052E00084F83900049800902046FFF777FF226881
:1052F000136843F0010313600020EAE770B582B041
:1053000004460D460023019303681B6813F0010F48
:105310002AD12368DA6912F0200F03D15B6A13F0F7
:10532000200F7FD005F0A4F9064623685A6812F0D2
:10533000100F77D15A680192019A12F0290F4FD1BC
:10534000B5F1FF3FF1D025B105F092F9801B854200
:10535000EBD2E36B43F02003E363032084F83900CE
:10536000002384F8383066E005F082F906462368A9
:105370005A6812F0020FCCD15A680192019A12F0C9
:10538000210F13D1B5F1FF3FF1D025B105F070F930
:10539000801B8542EBD2E36B43F02003E3630320E1
:1053A00084F83900002384F8383044E0019A12F080
:1053B000200F03D0E26B42F00202E263019A12F086
:1053C000010F03D0E26B42F00102E26321229A60F6
:1053D000042384F83930002384F8383001202AE08F
:1053E000019A12F0080F03D0E26B42F00402E2636C
:1053F000019A12F0200F03D0E26B42F00202E26346
:10540000019A12F0010F03D0E26B42F00102E26355
:1054100029229A60042384F83930002384F8383034
:10542000012008E0236812229A60012384F83930B1
:10543000002084F8380002B070BD7047704770B526
:10544000044603685D681E6815F0010F16D016F457
:10545000807F13D01A6822F480721A60C36B43F005
:105460000103C363036801229A60042380F8393082
:10547000002380F83830436903B1984715F0200FB6
:1054800018D016F4005F15D02268136823F4005377
:105490001360236820229A60E36B43F00203E36306
:1054A000042384F83930002384F8383063690BB161
:1054B0002046984715F0080F18D016F4006F15D045
:1054C0002268136823F400631360236808229A603B
:1054D000E36B43F00403E363042384F839300023CF
:1054E00084F8383063690BB12046984715F0040FF3
:1054F00002D016F4806F20D115F0020F16D016F4EA
:10550000007F13D02268136823F4007313602368AC
:1055100002229A60E36BE363012384F839300023AD
:1055200084F8383023690BB12046984715F0100FE6
:1055300002D016F4805F0CD170BD2268136823F48A
:1055400080631360236804229A602046FFF775FF8A
:10555000D2E72268136823F4805313602368102273
:105560009A60E36BE363012384F83930002384F805
:1055700038302046FFF762FFDEE7000090F8383051
:10558000012B59D030B4012380F83830022380F841
:10559000393000EB0113DA698B1C1B01C35842EA56
:1055A0000343093A012A1ED98A1C00EB02125268F1
:1055B00043EA026341BB0468656A204A2A401343F8
:1055C0006362026800EB01139C699461DB69093B2B
:1055D000012B10D9012380F83930002380F83830AE
:1055E000184630BC70478A1C00EB0212526802F069
:1055F0007F421343DEE70268023100EB01114B6882
:1056000023F07F439362E5E70468E5690B4A2A408B
:105610001343E361026800EB01139C691461DB69C9
:10562000093B012BD6D80268023100EB01114B680F
:1056300023F07F431362CDE702207047F0FFFC00A8
:1056400030B40B68012B18D00368194A1A404B6814
:105650008C682343CC6823430C6923434C69234360
:105660008C692343CC6923430C6A2343496A0B4367
:1056700013430360002030BC7047046824F4F844EE
:10568000CB690A6A13434A6A13431C434368084AB6
:105690001A404B688D682B43CD682B430D692B4313
:1056A0004D692B4389690B43134304604360E1E771
:1056B0000080FFFF30B4012A21D0826802F07042DE
:1056C0000B68013B4C68013C43EA04138C68013CC5
:1056D00043EA0423CC68013C43EA04330C69013CEF
:1056E00043EA04434C69013C43EA045389690139A4
:1056F00043EA016313438360002030BC7047836832
:10570000114C1C40CB685A1E4B69013B1B0543EAF8
:1057100002331C43C26802F070420B68013B4D68C3
:10572000013D43EA05138D68013D43EA05230D69F8
:10573000013D43EA05438969013943EA01631343A3
:105740008460C360D8E700BFFF0F0FFF10B483B0C1
:105750000446002001900B684A6813438A68013AA6
:1057600043EA4213CA6843EA42230193019B23613F
:1057700003B05DF8044B7047436943EA410141615E
:1057800000207047D8B138B504460D4690F82C304B
:1057900083B1022384F82C30211D2068FFF750FFCD
:1057A000626829462068FFF785FF012384F82C30C2
:1057B000002038BD80F82D30FEF70AF8E9E7012017
:1057C000704738B590F82C30DBB2022B01D10220A3
:1057D00038BD0D460446022380F82C300068FFF7E0
:1057E000B5FF2B68022B04D0012384F82C30002055
:1057F00038BD052384F82C30002038BD90F82C30BB
:10580000DBB2022B01D10220704710B504460223FF
:1058100080F82C300068FFF7AFFF012384F82C30AC
:10582000002010BD03689A6912F0020F01D0002217
:105830009A6203689A6912F0010F03D19A6942F0E3
:1058400001029A61704770B4039D066870686C0D20
:1058500004F4806444F07F7444F4583444F47F7456
:1058600044F0030420EA0400C1F3090141EA0241C3
:10587000194329430843706070BC704770B50446F3
:105880000D46164603689B6913F0100F17D0236866
:105890009A6912F0200F14D1B5F1FF3FF7D025B16E
:1058A00004F0E6FE801B8542F1D2202384F84130CB
:1058B000002384F8423084F84030032070BD00207B
:1058C00070BD1022DA6123682025DD612046FFF7D4
:1058D000A9FF2268536823F0FF7323F48B3323F46A
:1058E000FF7323F0010353600423636484F8415081
:1058F000002384F8423084F84030012070BD70B538
:1059000004460D46164623689B6913F0020F1CD10E
:10591000324629462046FFF7B1FFC0B9B5F1FF3F37
:10592000F1D025B104F0A4FE801B8542EBD2636C5C
:1059300043F020036364202384F84130002384F87B
:10594000423084F84030032070BD002070BD01203B
:1059500070BDF8B505460F4616461C462B689B6978
:1059600037EA03030CBF01230023B34213D1B4F180
:10597000FF3FF3D02CB104F07BFE069BC01A84429B
:10598000ECD2202385F84130002385F8423085F899
:1059900040300320F8BD0020F8BD000070B582B093
:1059A000044616461D461E4B00934FF08073EAB224
:1059B000FFF749FF079A06992046FFF7A0FF40B17D
:1059C000636C042B03D00323184602B070BD01237F
:1059D000FAE7012D0DD02368320A9A62079A0699D8
:1059E0002046FFF78CFFB0B1636C042B11D003236A
:1059F000EAE72368F6B29E62079B0093069B0022AB
:105A000080212046FFF7A5FF03460028DCD00323B2
:105A1000DAE70123D8E72368F6B29E62ECE700BF1D
:105A20000020008070B582B0044616461D461D4B0E
:105A300000930023EAB2FFF706FF079A0699204673
:105A4000FFF75DFF40B1636C042B03D003231846BE
:105A500002B070BD0123FAE7012D0DD02368320A90
:105A60009A62079A06992046FFF749FFB0B1636C26
:105A7000042B11D00323EAE72368F6B29E62079B4A
:105A80000093069B002240212046FFF762FF034659
:105A90000028DCD00323DAE70123D8E72368F6B235
:105AA0009E62ECE70020008070B505460C46164665
:105AB0002B689B6913F0200F19D1324621462846E6
:105AC000FFF7DCFEA8B924B104F0D2FD801B8442AC
:105AD000EED26B6C43F020036B64202385F84130D9
